17:04:39.386507 IP 54.sub-70-192-7.myvzw.com.5291 > ip-10-164-95-145.ec2.internal.8000: Flags [F.], seq 2066178849, ack 1280304164, win 217, options [nop,nop,TS val 9976808 ecr 404961], length 0
	0x0000:  2200 0aa4 5f91 feff ffff ffff 0800 4500  "..._.........E.
	0x0010:  0034 5701 4000 2606 4598 46c0 0736 0aa4  .4W.@.&.E.F..6..
	0x0020:  5f91 14ab 1f40 7b27 6321 4c4f e424 8011  _....@{'c!LO.$..
	0x0030:  00d9 10a9 0000 0101 080a 0098 3be8 0006  ............;...
	0x0040:  2de1                                     -.
17:04:39.387726 IP ip-10-164-95-145.ec2.internal.8000 > 54.sub-70-192-7.myvzw.com.5291: Flags [F.], seq 1, ack 1, win 227, options [nop,nop,TS val 408823 ecr 9976808], length 0
	0x0000:  feff ffff ffff 2200 0aa4 5f91 0800 4500  ......"..._...E.
	0x0010:  0034 c9c9 4000 4006 b8cf 0aa4 5f91 46c0  .4..@.@....._.F.
	0x0020:  0736 1f40 14ab 4c4f e424 7b27 6322 8011  .6.@..LO.${'c"..
	0x0030:  00e3 b851 0000 0101 080a 0006 3cf7 0098  ...Q........<...
	0x0040:  3be8                                     ;.
17:04:39.388830 IP ip-10-164-95-145.ec2.internal.8000 > pool-74-104-152-249.bstnma.fios.verizon.net.62346: Flags [P.], seq 3621109775:3621109792, ack 2674818131, win 243, options [nop,nop,TS val 408823 ecr 1068198223], length 17
	0x0000:  feff ffff ffff 2200 0aa4 5f91 0800 4500  ......"..._...E.
	0x0010:  0045 f190 4000 4006 fb8b 0aa4 5f91 4a68  .E..@.@....._.Jh
	0x0020:  98f9 1f40 f38a d7d5 c00f 9f6e 7c53 8018  ...@.......n|S..
	0x0030:  00f3 4dce 0000 0101 080a 0006 3cf7 3fab  ..M.........<.?.
	0x0040:  694f 4854 5450 2f31 2e30 2032 3030 204f  iOHTTP/1.0.200.O
	0x0050:  4b0d 0a                                  K..
17:04:39.389101 IP ip-10-164-95-145.ec2.internal.8000 > pool-74-104-152-249.bstnma.fios.verizon.net.62346: Flags [FP.], seq 17:591, ack 1, win 243, options [nop,nop,TS val 408824 ecr 1068198223], length 574
	0x0000:  feff ffff ffff 2200 0aa4 5f91 0800 4500  ......"..._...E.
	0x0010:  0272 f191 4000 4006 f95d 0aa4 5f91 4a68  .r..@.@..].._.Jh
	0x0020:  98f9 1f40 f38a d7d5 c020 9f6e 7c53 8019  ...@.......n|S..
	0x0030:  00f3 4ffb 0000 0101 080a 0006 3cf8 3fab  ..O.........<.?.
	0x0040:  694f 5365 7276 6572 3a20 5369 6d70 6c65  iOServer:.Simple
	0x0050:  4854 5450 2f30 2e36 2050 7974 686f 6e2f  HTTP/0.6.Python/
	0x0060:  322e 372e 330d 0a44 6174 653a 204d 6f6e  2.7.3..Date:.Mon
	0x0070:  2c20 3034 204e 6f76 2032 3031 3320 3137  ,.04.Nov.2013.17
	0x0080:  3a30 343a 3339 2047 4d54 0d0a 436f 6e74  :04:39.GMT..Cont
	0x0090:  656e 742d 7479 7065 3a20 7465 7874 2f68  ent-type:.text/h
	0x00a0:  746d 6c0d 0a43 6f6e 7465 6e74 2d4c 656e  tml..Content-Len
	0x00b0:  6774 683a 2034 3036 0d0a 4c61 7374 2d4d  gth:.406..Last-M
	0x00c0:  6f64 6966 6965 643a 204d 6f6e 2c20 3034  odified:.Mon,.04
	0x00d0:  204e 6f76 2032 3031 3320 3136 3a34 363a  .Nov.2013.16:46:
	0x00e0:  3435 2047 4d54 0d0a 0d0a 3c21 444f 4354  45.GMT....<!DOCT
	0x00f0:  5950 4520 6874 6d6c 3e0a 3c68 746d 6c3e  YPE.html>.<html>
	0x0100:  0a3c 6865 6164 3e0a 3c73 6372 6970 7420  .<head>.<script.
	0x0110:  7372 633d 2268 7474 703a 2f2f 7369 6d70  src="http://simp
	0x0120:  6c65 7765 6272 7463 2e63 6f6d 2f6c 6174  lewebrtc.com/lat
	0x0130:  6573 742e 6a73 223e 3c2f 7363 7269 7074  est.js"></script
	0x0140:  3e0a 3c2f 6865 6164 3e0a 0a3c 626f 6479  >.</head>..<body
	0x0150:  3e0a 0a3c 6469 7620 6964 3d22 6c6f 6361  >..<div.id="loca
	0x0160:  6c56 6964 656f 2220 6d75 7465 643e 3c2f  lVideo".muted></
	0x0170:  6469 763e 0a3c 6469 7620 6964 3d22 7265  div>.<div.id="re
	0x0180:  6d6f 7465 5669 6465 6f22 3e3c 2f64 6976  moteVideo"></div
	0x0190:  3e0a 0a0a 3c73 6372 6970 743e 0a76 6172  >...<script>.var
	0x01a0:  2077 6562 7274 6320 3d20 6e65 7720 5369  .webrtc.=.new.Si
	0x01b0:  6d70 6c65 5765 6252 5443 287b 0a09 6c6f  mpleWebRTC({..lo
	0x01c0:  6361 6c56 6964 656f 456c 3a20 276c 6f63  calVideoEl:.'loc
	0x01d0:  616c 5669 6465 6f27 2c0a 0972 656d 6f74  alVideo',..remot
	0x01e0:  6556 6964 656f 7345 6c3a 2027 7265 6d6f  eVideosEl:.'remo
	0x01f0:  7465 5669 6465 6f27 2c0a 0961 7574 6f52  teVideo',..autoR
	0x0200:  6571 7565 7374 4d65 6469 613a 2074 7275  equestMedia:.tru
	0x0210:  650a 7d29 3b0a 0a77 6562 7274 632e 6f6e  e.});..webrtc.on
	0x0220:  2827 7265 6164 7954 6f43 616c 6c27 2c20  ('readyToCall',.
	0x0230:  6675 6e63 7469 6f6e 2028 2920 7b0a 0977  function.().{..w
	0x0240:  6562 7274 632e 6a6f 696e 526f 6f6d 2827  ebrtc.joinRoom('
	0x0250:  4d79 2072 6f6f 6d20 6e61 6d65 2729 3b0a  My.room.name');.
	0x0260:  7d29 3b0a 3c2f 7363 7269 7074 3e0a 0a3c  });.</script>..<
	0x0270:  2f62 6f64 793e 0a0a 3c2f 6874 6d6c 3e0a  /body>..</html>.
17:04:39.406499 IP pool-74-104-152-249.bstnma.fios.verizon.net.62346 > ip-10-164-95-145.ec2.internal.8000: Flags [.], ack 17, win 8234, options [nop,nop,TS val 1068209935 ecr 408823], length 0
	0x0000:  2200 0aa4 5f91 feff ffff ffff 0800 4500  "..._.........E.
	0x0010:  0034 db09 4000 2a06 2824 4a68 98f9 0aa4  .4..@.*.($Jh....
	0x0020:  5f91 f38a 1f40 9f6e 7c53 d7d5 c020 8010  _....@.n|S......
	0x0030:  202a 2ec1 0000 0101 080a 3fab 970f 0006  .*........?.....
	0x0040:  3cf7                                     <.
17:04:39.406630 IP pool-74-104-152-249.bstnma.fios.verizon.net.62346 > ip-10-164-95-145.ec2.internal.8000: Flags [.], ack 592, win 8198, options [nop,nop,TS val 1068209935 ecr 408824], length 0
	0x0000:  2200 0aa4 5f91 feff ffff ffff 0800 4500  "..._.........E.
	0x0010:  0034 bfca 4000 2a06 4363 4a68 98f9 0aa4  .4..@.*.CcJh....
	0x0020:  5f91 f38a 1f40 9f6e 7c53 d7d5 c25f 8010  _....@.n|S..._..
	0x0030:  2006 2ca5 0000 0101 080a 3fab 970f 0006  ..,.......?.....
	0x0040:  3cf8                                     <.
17:04:39.406652 IP pool-74-104-152-249.bstnma.fios.verizon.net.62346 > ip-10-164-95-145.ec2.internal.8000: Flags [F.], seq 1, ack 592, win 8198, options [nop,nop,TS val 1068209935 ecr 408824], length 0
	0x0000:  2200 0aa4 5f91 feff ffff ffff 0800 4500  "..._.........E.
	0x0010:  0034 4004 4000 2a06 c329 4a68 98f9 0aa4  .4@.@.*..)Jh....
	0x0020:  5f91 f38a 1f40 9f6e 7c53 d7d5 c25f 8011  _....@.n|S..._..
	0x0030:  2006 2ca4 0000 0101 080a 3fab 970f 0006  ..,.......?.....
	0x0040:  3cf8                                     <.
17:04:39.406662 IP ip-10-164-95-145.ec2.internal.8000 > pool-74-104-152-249.bstnma.fios.verizon.net.62346: Flags [.], ack 2, win 243, options [nop,nop,TS val 408828 ecr 1068209935], length 0
	0x0000:  feff ffff ffff 2200 0aa4 5f91 0800 4500  ......"..._...E.
	0x0010:  0034 0000 4000 4006 ed2d 0aa4 5f91 4a68  .4..@.@..-.._.Jh
	0x0020:  98f9 1f40 f38a d7d5 c25f 9f6e 7c54 8010  ...@....._.n|T..
	0x0030:  00f3 4bb3 0000 0101 080a 0006 3cfc 3fab  ..K.........<.?.
	0x0040:  970f                                     ..
17:04:39.446625 IP 54.sub-70-192-7.myvzw.com.5291 > ip-10-164-95-145.ec2.internal.8000: Flags [.], ack 2, win 217, options [nop,nop,TS val 9976814 ecr 408823], length 0
	0x0000:  2200 0aa4 5f91 feff ffff ffff 0800 4500  "..._.........E.
	0x0010:  0034 5702 4000 2606 4597 46c0 0736 0aa4  .4W.@.&.E.F..6..
	0x0020:  5f91 14ab 1f40 7b27 6322 4c4f e425 8010  _....@{'c"LO.%..
	0x0030:  00d9 018c 0000 0101 080a 0098 3bee 0006  ............;...
	0x0040:  3cf7                                     <.
17:04:58.087788 IP 54.sub-70-192-7.myvzw.com.5284 > ip-10-164-95-145.ec2.internal.8000: Flags [S], seq 981487050, win 13880, options [mss 1388,sackOK,TS val 9978677 ecr 0,nop,wscale 6], length 0
	0x0000:  2200 0aa4 5f91 feff ffff ffff 0800 4500  "..._.........E.
	0x0010:  003c 0eff 4000 2606 8d92 46c0 0736 0aa4  .<..@.&...F..6..
	0x0020:  5f91 14a4 1f40 3a80 4dca 0000 0000 a002  _....@:.M.......
	0x0030:  3638 59ea 0000 0204 056c 0402 080a 0098  68Y......l......
	0x0040:  4335 0000 0000 0103 0306                 C5........
17:04:58.087829 IP ip-10-164-95-145.ec2.internal.8000 > 54.sub-70-192-7.myvzw.com.5284: Flags [S.], seq 1899421432, ack 981487051, win 14480, options [mss 1460,sackOK,TS val 413498 ecr 9978677,nop,wscale 6], length 0
	0x0000:  feff ffff ffff 2200 0aa4 5f91 0800 4500  ......"..._...E.
	0x0010:  003c 0000 4000 4006 8291 0aa4 5f91 46c0  .<..@.@....._.F.
	0x0020:  0736 1f40 14a4 7136 def8 3a80 4dcb a012  .6.@..q6..:.M...
	0x0030:  3890 b859 0000 0204 05b4 0402 080a 0006  8..Y............
	0x0040:  4f3a 0098 4335 0103 0306                 O:..C5....
17:04:58.146787 IP 54.sub-70-192-7.myvzw.com.5284 > ip-10-164-95-145.ec2.internal.8000: Flags [.], ack 1, win 217, options [nop,nop,TS val 9978683 ecr 413498], length 0
	0x0000:  2200 0aa4 5f91 feff ffff ffff 0800 4500  "..._.........E.
	0x0010:  0034 0f00 4000 2606 8d99 46c0 0736 0aa4  .4..@.&...F..6..
	0x0020:  5f91 14a4 1f40 3a80 4dcb 7136 def9 8010  _....@:.M.q6....
	0x0030:  00d9 1e46 0000 0101 080a 0098 433b 0006  ...F........C;..
	0x0040:  4f3a                                     O:
17:04:58.154943 IP 54.sub-70-192-7.myvzw.com.5284 > ip-10-164-95-145.ec2.internal.8000: Flags [P.], seq 1:431, ack 1, win 217, options [nop,nop,TS val 9978685 ecr 413498], length 430
	0x0000:  2200 0aa4 5f91 feff ffff ffff 0800 4500  "..._.........E.
	0x0010:  01e2 0f01 4000 2606 8bea 46c0 0736 0aa4  ....@.&...F..6..
	0x0020:  5f91 14a4 1f40 3a80 4dcb 7136 def9 8018  _....@:.M.q6....
	0x0030:  00d9 f329 0000 0101 080a 0098 433d 0006  ...)........C=..
	0x0040:  4f3a 4745 5420 2f73 7465 7038 2e68 746d  O:GET./step8.htm
	0x0050:  6c20 4854 5450 2f31 2e31 0d0a 486f 7374  l.HTTP/1.1..Host
	0x0060:  3a20 3534 2e32 3235 2e32 3439 2e35 373a  :.54.225.249.57:
	0x0070:  3830 3030 0d0a 436f 6e6e 6563 7469 6f6e  8000..Connection
	0x0080:  3a20 6b65 6570 2d61 6c69 7665 0d0a 4163  :.keep-alive..Ac
	0x0090:  6365 7074 3a20 7465 7874 2f68 746d 6c2c  cept:.text/html,
	0x00a0:  6170 706c 6963 6174 696f 6e2f 7868 746d  application/xhtm
	0x00b0:  6c2b 786d 6c2c 6170 706c 6963 6174 696f  l+xml,applicatio
	0x00c0:  6e2f 786d 6c3b 713d 302e 392c 696d 6167  n/xml;q=0.9,imag
	0x00d0:  652f 7765 6270 2c2a 2f2a 3b71 3d30 2e38  e/webp,*/*;q=0.8
	0x00e0:  0d0a 5573 6572 2d41 6765 6e74 3a20 4d6f  ..User-Agent:.Mo
	0x00f0:  7a69 6c6c 612f 352e 3020 284c 696e 7578  zilla/5.0.(Linux
	0x0100:  3b20 416e 6472 6f69 6420 342e 333b 2053  ;.Android.4.3;.S
	0x0110:  4d2d 4e39 3030 5620 4275 696c 642f 4a53  M-N900V.Build/JS
	0x0120:  5331 354a 2920 4170 706c 6557 6562 4b69  S15J).AppleWebKi
	0x0130:  742f 3533 372e 3336 2028 4b48 544d 4c2c  t/537.36.(KHTML,
	0x0140:  206c 696b 6520 4765 636b 6f29 2043 6872  .like.Gecko).Chr
	0x0150:  6f6d 652f 3330 2e30 2e31 3539 392e 3932  ome/30.0.1599.92
	0x0160:  204d 6f62 696c 6520 5361 6661 7269 2f35  .Mobile.Safari/5
	0x0170:  3337 2e33 360d 0a41 6363 6570 742d 456e  37.36..Accept-En
	0x0180:  636f 6469 6e67 3a20 677a 6970 2c64 6566  coding:.gzip,def
	0x0190:  6c61 7465 2c73 6463 680d 0a41 6363 6570  late,sdch..Accep
	0x01a0:  742d 4c61 6e67 7561 6765 3a20 656e 2d55  t-Language:.en-U
	0x01b0:  532c 656e 3b71 3d30 2e38 0d0a 4966 2d4d  S,en;q=0.8..If-M
	0x01c0:  6f64 6966 6965 642d 5369 6e63 653a 204d  odified-Since:.M
	0x01d0:  6f6e 2c20 3034 204e 6f76 2032 3031 3320  on,.04.Nov.2013.
	0x01e0:  3136 3a34 363a 3435 2047 4d54 0d0a 0d0a  16:46:45.GMT....
17:04:58.154977 IP ip-10-164-95-145.ec2.internal.8000 > 54.sub-70-192-7.myvzw.com.5284: Flags [.], ack 431, win 243, options [nop,nop,TS val 413515 ecr 9978685], length 0
	0x0000:  feff ffff ffff 2200 0aa4 5f91 0800 4500  ......"..._...E.
	0x0010:  0034 91b0 4000 4006 f0e8 0aa4 5f91 46c0  .4..@.@....._.F.
	0x0020:  0736 1f40 14a4 7136 def9 3a80 4f79 8010  .6.@..q6..:.Oy..
	0x0030:  00f3 b851 0000 0101 080a 0006 4f4b 0098  ...Q........OK..
	0x0040:  433d                                     C=
17:04:58.155989 IP ip-10-164-95-145.ec2.internal.8000 > 54.sub-70-192-7.myvzw.com.5284: Flags [P.], seq 1:18, ack 431, win 243, options [nop,nop,TS val 413515 ecr 9978685], length 17
	0x0000:  feff ffff ffff 2200 0aa4 5f91 0800 4500  ......"..._...E.
	0x0010:  0045 91b1 4000 4006 f0d6 0aa4 5f91 46c0  .E..@.@....._.F.
	0x0020:  0736 1f40 14a4 7136 def9 3a80 4f79 8018  .6.@..q6..:.Oy..
	0x0030:  00f3 b862 0000 0101 080a 0006 4f4b 0098  ...b........OK..
	0x0040:  433d 4854 5450 2f31 2e30 2032 3030 204f  C=HTTP/1.0.200.O
	0x0050:  4b0d 0a                                  K..
17:04:58.156217 IP ip-10-164-95-145.ec2.internal.8000 > 54.sub-70-192-7.myvzw.com.5284: Flags [FP.], seq 18:592, ack 431, win 243, options [nop,nop,TS val 413515 ecr 9978685], length 574
	0x0000:  feff ffff ffff 2200 0aa4 5f91 0800 4500  ......"..._...E.
	0x0010:  0272 91b2 4000 4006 eea8 0aa4 5f91 46c0  .r..@.@....._.F.
	0x0020:  0736 1f40 14a4 7136 df0a 3a80 4f79 8019  .6.@..q6..:.Oy..
	0x0030:  00f3 ba8f 0000 0101 080a 0006 4f4b 0098  ............OK..
	0x0040:  433d 5365 7276 6572 3a20 5369 6d70 6c65  C=Server:.Simple
	0x0050:  4854 5450 2f30 2e36 2050 7974 686f 6e2f  HTTP/0.6.Python/
	0x0060:  322e 372e 330d 0a44 6174 653a 204d 6f6e  2.7.3..Date:.Mon
	0x0070:  2c20 3034 204e 6f76 2032 3031 3320 3137  ,.04.Nov.2013.17
	0x0080:  3a30 343a 3538 2047 4d54 0d0a 436f 6e74  :04:58.GMT..Cont
	0x0090:  656e 742d 7479 7065 3a20 7465 7874 2f68  ent-type:.text/h
	0x00a0:  746d 6c0d 0a43 6f6e 7465 6e74 2d4c 656e  tml..Content-Len
	0x00b0:  6774 683a 2034 3036 0d0a 4c61 7374 2d4d  gth:.406..Last-M
	0x00c0:  6f64 6966 6965 643a 204d 6f6e 2c20 3034  odified:.Mon,.04
	0x00d0:  204e 6f76 2032 3031 3320 3136 3a34 363a  .Nov.2013.16:46:
	0x00e0:  3435 2047 4d54 0d0a 0d0a 3c21 444f 4354  45.GMT....<!DOCT
	0x00f0:  5950 4520 6874 6d6c 3e0a 3c68 746d 6c3e  YPE.html>.<html>
	0x0100:  0a3c 6865 6164 3e0a 3c73 6372 6970 7420  .<head>.<script.
	0x0110:  7372 633d 2268 7474 703a 2f2f 7369 6d70  src="http://simp
	0x0120:  6c65 7765 6272 7463 2e63 6f6d 2f6c 6174  lewebrtc.com/lat
	0x0130:  6573 742e 6a73 223e 3c2f 7363 7269 7074  est.js"></script
	0x0140:  3e0a 3c2f 6865 6164 3e0a 0a3c 626f 6479  >.</head>..<body
	0x0150:  3e0a 0a3c 6469 7620 6964 3d22 6c6f 6361  >..<div.id="loca
	0x0160:  6c56 6964 656f 2220 6d75 7465 643e 3c2f  lVideo".muted></
	0x0170:  6469 763e 0a3c 6469 7620 6964 3d22 7265  div>.<div.id="re
	0x0180:  6d6f 7465 5669 6465 6f22 3e3c 2f64 6976  moteVideo"></div
	0x0190:  3e0a 0a0a 3c73 6372 6970 743e 0a76 6172  >...<script>.var
	0x01a0:  2077 6562 7274 6320 3d20 6e65 7720 5369  .webrtc.=.new.Si
	0x01b0:  6d70 6c65 5765 6252 5443 287b 0a09 6c6f  mpleWebRTC({..lo
	0x01c0:  6361 6c56 6964 656f 456c 3a20 276c 6f63  calVideoEl:.'loc
	0x01d0:  616c 5669 6465 6f27 2c0a 0972 656d 6f74  alVideo',..remot
	0x01e0:  6556 6964 656f 7345 6c3a 2027 7265 6d6f  eVideosEl:.'remo
	0x01f0:  7465 5669 6465 6f27 2c0a 0961 7574 6f52  teVideo',..autoR
	0x0200:  6571 7565 7374 4d65 6469 613a 2074 7275  equestMedia:.tru
	0x0210:  650a 7d29 3b0a 0a77 6562 7274 632e 6f6e  e.});..webrtc.on
	0x0220:  2827 7265 6164 7954 6f43 616c 6c27 2c20  ('readyToCall',.
	0x0230:  6675 6e63 7469 6f6e 2028 2920 7b0a 0977  function.().{..w
	0x0240:  6562 7274 632e 6a6f 696e 526f 6f6d 2827  ebrtc.joinRoom('
	0x0250:  4d79 2072 6f6f 6d20 6e61 6d65 2729 3b0a  My.room.name');.
	0x0260:  7d29 3b0a 3c2f 7363 7269 7074 3e0a 0a3c  });.</script>..<
	0x0270:  2f62 6f64 793e 0a0a 3c2f 6874 6d6c 3e0a  /body>..</html>.
17:04:58.206709 IP 54.sub-70-192-7.myvzw.com.5284 > ip-10-164-95-145.ec2.internal.8000: Flags [.], ack 18, win 217, options [nop,nop,TS val 9978690 ecr 413515], length 0
	0x0000:  2200 0aa4 5f91 feff ffff ffff 0800 4500  "..._.........E.
	0x0010:  0034 0f02 4000 2606 8d97 46c0 0736 0aa4  .4..@.&...F..6..
	0x0020:  5f91 14a4 1f40 3a80 4f79 7136 df0a 8010  _....@:.Oyq6....
	0x0030:  00d9 1c6f 0000 0101 080a 0098 4342 0006  ...o........CB..
	0x0040:  4f4b                                     OK
17:04:58.206732 IP 54.sub-70-192-7.myvzw.com.5284 > ip-10-164-95-145.ec2.internal.8000: Flags [.], ack 593, win 260, options [nop,nop,TS val 9978691 ecr 413515], length 0
	0x0000:  2200 0aa4 5f91 feff ffff ffff 0800 4500  "..._.........E.
	0x0010:  0034 0f03 4000 2606 8d96 46c0 0736 0aa4  .4..@.&...F..6..
	0x0020:  5f91 14a4 1f40 3a80 4f79 7136 e149 8010  _....@:.Oyq6.I..
	0x0030:  0104 1a04 0000 0101 080a 0098 4343 0006  ............CC..
	0x0040:  4f4b                                     OK
17:04:58.227443 IP 54.sub-70-192-7.myvzw.com.5284 > ip-10-164-95-145.ec2.internal.8000: Flags [F.], seq 431, ack 593, win 260, options [nop,nop,TS val 9978692 ecr 413515], length 0
	0x0000:  2200 0aa4 5f91 feff ffff ffff 0800 4500  "..._.........E.
	0x0010:  0034 0f04 4000 2606 8d95 46c0 0736 0aa4  .4..@.&...F..6..
	0x0020:  5f91 14a4 1f40 3a80 4f79 7136 e149 8011  _....@:.Oyq6.I..
	0x0030:  0104 1a02 0000 0101 080a 0098 4344 0006  ............CD..
	0x0040:  4f4b                                     OK
17:04:58.227458 IP ip-10-164-95-145.ec2.internal.8000 > 54.sub-70-192-7.myvzw.com.5284: Flags [.], ack 432, win 243, options [nop,nop,TS val 413533 ecr 9978692], length 0
	0x0000:  feff ffff ffff 2200 0aa4 5f91 0800 4500  ......"..._...E.
	0x0010:  0034 0000 4000 4006 8299 0aa4 5f91 46c0  .4..@.@....._.F.
	0x0020:  0736 1f40 14a4 7136 e149 3a80 4f7a 8010  .6.@..q6.I:.Oz..
	0x0030:  00f3 1a01 0000 0101 080a 0006 4f5d 0098  ............O]..
	0x0040:  4344                                     CD
17:05:23.247577 IP 54.sub-70-192-7.myvzw.com.5311 > ip-10-164-95-145.ec2.internal.8000: Flags [S], seq 3838222563, win 13880, options [mss 1388,sackOK,TS val 9981193 ecr 0,nop,wscale 6], length 0
	0x0000:  2200 0aa4 5f91 feff ffff ffff 0800 4500  "..._.........E.
	0x0010:  003c edea 4000 2606 aea6 46c0 0736 0aa4  .<..@.&...F..6..
	0x0020:  5f91 14bf 1f40 e4c6 a0e3 0000 0000 a002  _....@..........
	0x0030:  3638 529b 0000 0204 056c 0402 080a 0098  68R......l......
	0x0040:  4d09 0000 0000 0103 0306                 M.........
17:05:23.247618 IP ip-10-164-95-145.ec2.internal.8000 > 54.sub-70-192-7.myvzw.com.5311: Flags [S.], seq 3956995472, ack 3838222564, win 14480, options [mss 1460,sackOK,TS val 419788 ecr 9981193,nop,wscale 6], length 0
	0x0000:  feff ffff ffff 2200 0aa4 5f91 0800 4500  ......"..._...E.
	0x0010:  003c 0000 4000 4006 8291 0aa4 5f91 46c0  .<..@.@....._.F.
	0x0020:  0736 1f40 14bf ebda f590 e4c6 a0e4 a012  .6.@............
	0x0030:  3890 b859 0000 0204 05b4 0402 080a 0006  8..Y............
	0x0040:  67cc 0098 4d09 0103 0306                 g...M.....
17:05:23.309213 IP 54.sub-70-192-7.myvzw.com.5311 > ip-10-164-95-145.ec2.internal.8000: Flags [.], ack 1, win 217, options [nop,nop,TS val 9981199 ecr 419788], length 0
	0x0000:  2200 0aa4 5f91 feff ffff ffff 0800 4500  "..._.........E.
	0x0010:  0034 edeb 4000 2606 aead 46c0 0736 0aa4  .4..@.&...F..6..
	0x0020:  5f91 14bf 1f40 e4c6 a0e4 ebda f591 8010  _....@..........
	0x0030:  00d9 6d28 0000 0101 080a 0098 4d0f 0006  ..m(........M...
	0x0040:  67cc                                     g.
17:05:23.315334 IP 54.sub-70-192-7.myvzw.com.5311 > ip-10-164-95-145.ec2.internal.8000: Flags [P.], seq 1:457, ack 1, win 217, options [nop,nop,TS val 9981200 ecr 419788], length 456
	0x0000:  2200 0aa4 5f91 feff ffff ffff 0800 4500  "..._.........E.
	0x0010:  01fc edec 4000 2606 ace4 46c0 0736 0aa4  ....@.&...F..6..
	0x0020:  5f91 14bf 1f40 e4c6 a0e4 ebda f591 8018  _....@..........
	0x0030:  00d9 4488 0000 0101 080a 0098 4d10 0006  ..D.........M...
	0x0040:  67cc 4745 5420 2f73 7465 7038 2e68 746d  g.GET./step8.htm
	0x0050:  6c20 4854 5450 2f31 2e31 0d0a 486f 7374  l.HTTP/1.1..Host
	0x0060:  3a20 3534 2e32 3235 2e32 3439 2e35 373a  :.54.225.249.57:
	0x0070:  3830 3030 0d0a 436f 6e6e 6563 7469 6f6e  8000..Connection
	0x0080:  3a20 6b65 6570 2d61 6c69 7665 0d0a 4361  :.keep-alive..Ca
	0x0090:  6368 652d 436f 6e74 726f 6c3a 206d 6178  che-Control:.max
	0x00a0:  2d61 6765 3d30 0d0a 4163 6365 7074 3a20  -age=0..Accept:.
	0x00b0:  7465 7874 2f68 746d 6c2c 6170 706c 6963  text/html,applic
	0x00c0:  6174 696f 6e2f 7868 746d 6c2b 786d 6c2c  ation/xhtml+xml,
	0x00d0:  6170 706c 6963 6174 696f 6e2f 786d 6c3b  application/xml;
	0x00e0:  713d 302e 392c 696d 6167 652f 7765 6270  q=0.9,image/webp
	0x00f0:  2c2a 2f2a 3b71 3d30 2e38 0d0a 5573 6572  ,*/*;q=0.8..User
	0x0100:  2d41 6765 6e74 3a20 4d6f 7a69 6c6c 612f  -Agent:.Mozilla/
	0x0110:  352e 3020 284c 696e 7578 3b20 416e 6472  5.0.(Linux;.Andr
	0x0120:  6f69 6420 342e 333b 2053 4d2d 4e39 3030  oid.4.3;.SM-N900
	0x0130:  5620 4275 696c 642f 4a53 5331 354a 2920  V.Build/JSS15J).
	0x0140:  4170 706c 6557 6562 4b69 742f 3533 372e  AppleWebKit/537.
	0x0150:  3336 2028 4b48 544d 4c2c 206c 696b 6520  36.(KHTML,.like.
	0x0160:  4765 636b 6f29 2043 6872 6f6d 652f 3330  Gecko).Chrome/30
	0x0170:  2e30 2e31 3539 392e 3932 204d 6f62 696c  .0.1599.92.Mobil
	0x0180:  6520 5361 6661 7269 2f35 3337 2e33 360d  e.Safari/537.36.
	0x0190:  0a41 6363 6570 742d 456e 636f 6469 6e67  .Accept-Encoding
	0x01a0:  3a20 677a 6970 2c64 6566 6c61 7465 2c73  :.gzip,deflate,s
	0x01b0:  6463 680d 0a41 6363 6570 742d 4c61 6e67  dch..Accept-Lang
	0x01c0:  7561 6765 3a20 656e 2d55 532c 656e 3b71  uage:.en-US,en;q
	0x01d0:  3d30 2e38 0d0a 4966 2d4d 6f64 6966 6965  =0.8..If-Modifie
	0x01e0:  642d 5369 6e63 653a 204d 6f6e 2c20 3034  d-Since:.Mon,.04
	0x01f0:  204e 6f76 2032 3031 3320 3136 3a34 363a  .Nov.2013.16:46:
	0x0200:  3435 2047 4d54 0d0a 0d0a                 45.GMT....
17:05:23.315564 IP ip-10-164-95-145.ec2.internal.8000 > 54.sub-70-192-7.myvzw.com.5311: Flags [.], ack 457, win 243, options [nop,nop,TS val 419805 ecr 9981200], length 0
	0x0000:  feff ffff ffff 2200 0aa4 5f91 0800 4500  ......"..._...E.
	0x0010:  0034 924d 4000 4006 f04b 0aa4 5f91 46c0  .4.M@.@..K.._.F.
	0x0020:  0736 1f40 14bf ebda f591 e4c6 a2ac 8010  .6.@............
	0x0030:  00f3 b851 0000 0101 080a 0006 67dd 0098  ...Q........g...
	0x0040:  4d10                                     M.
17:05:23.316555 IP ip-10-164-95-145.ec2.internal.8000 > 54.sub-70-192-7.myvzw.com.5311: Flags [P.], seq 1:18, ack 457, win 243, options [nop,nop,TS val 419805 ecr 9981200], length 17
	0x0000:  feff ffff ffff 2200 0aa4 5f91 0800 4500  ......"..._...E.
	0x0010:  0045 924e 4000 4006 f039 0aa4 5f91 46c0  .E.N@.@..9.._.F.
	0x0020:  0736 1f40 14bf ebda f591 e4c6 a2ac 8018  .6.@............
	0x0030:  00f3 b862 0000 0101 080a 0006 67dd 0098  ...b........g...
	0x0040:  4d10 4854 5450 2f31 2e30 2032 3030 204f  M.HTTP/1.0.200.O
	0x0050:  4b0d 0a                                  K..
17:05:23.316784 IP ip-10-164-95-145.ec2.internal.8000 > 54.sub-70-192-7.myvzw.com.5311: Flags [FP.], seq 18:592, ack 457, win 243, options [nop,nop,TS val 419805 ecr 9981200], length 574
	0x0000:  feff ffff ffff 2200 0aa4 5f91 0800 4500  ......"..._...E.
	0x0010:  0272 924f 4000 4006 ee0b 0aa4 5f91 46c0  .r.O@.@....._.F.
	0x0020:  0736 1f40 14bf ebda f5a2 e4c6 a2ac 8019  .6.@............
	0x0030:  00f3 ba8f 0000 0101 080a 0006 67dd 0098  ............g...
	0x0040:  4d10 5365 7276 6572 3a20 5369 6d70 6c65  M.Server:.Simple
	0x0050:  4854 5450 2f30 2e36 2050 7974 686f 6e2f  HTTP/0.6.Python/
	0x0060:  322e 372e 330d 0a44 6174 653a 204d 6f6e  2.7.3..Date:.Mon
	0x0070:  2c20 3034 204e 6f76 2032 3031 3320 3137  ,.04.Nov.2013.17
	0x0080:  3a30 353a 3233 2047 4d54 0d0a 436f 6e74  :05:23.GMT..Cont
	0x0090:  656e 742d 7479 7065 3a20 7465 7874 2f68  ent-type:.text/h
	0x00a0:  746d 6c0d 0a43 6f6e 7465 6e74 2d4c 656e  tml..Content-Len
	0x00b0:  6774 683a 2034 3036 0d0a 4c61 7374 2d4d  gth:.406..Last-M
	0x00c0:  6f64 6966 6965 643a 204d 6f6e 2c20 3034  odified:.Mon,.04
	0x00d0:  204e 6f76 2032 3031 3320 3136 3a34 363a  .Nov.2013.16:46:
	0x00e0:  3435 2047 4d54 0d0a 0d0a 3c21 444f 4354  45.GMT....<!DOCT
	0x00f0:  5950 4520 6874 6d6c 3e0a 3c68 746d 6c3e  YPE.html>.<html>
	0x0100:  0a3c 6865 6164 3e0a 3c73 6372 6970 7420  .<head>.<script.
	0x0110:  7372 633d 2268 7474 703a 2f2f 7369 6d70  src="http://simp
	0x0120:  6c65 7765 6272 7463 2e63 6f6d 2f6c 6174  lewebrtc.com/lat
	0x0130:  6573 742e 6a73 223e 3c2f 7363 7269 7074  est.js"></script
	0x0140:  3e0a 3c2f 6865 6164 3e0a 0a3c 626f 6479  >.</head>..<body
	0x0150:  3e0a 0a3c 6469 7620 6964 3d22 6c6f 6361  >..<div.id="loca
	0x0160:  6c56 6964 656f 2220 6d75 7465 643e 3c2f  lVideo".muted></
	0x0170:  6469 763e 0a3c 6469 7620 6964 3d22 7265  div>.<div.id="re
	0x0180:  6d6f 7465 5669 6465 6f22 3e3c 2f64 6976  moteVideo"></div
	0x0190:  3e0a 0a0a 3c73 6372 6970 743e 0a76 6172  >...<script>.var
	0x01a0:  2077 6562 7274 6320 3d20 6e65 7720 5369  .webrtc.=.new.Si
	0x01b0:  6d70 6c65 5765 6252 5443 287b 0a09 6c6f  mpleWebRTC({..lo
	0x01c0:  6361 6c56 6964 656f 456c 3a20 276c 6f63  calVideoEl:.'loc
	0x01d0:  616c 5669 6465 6f27 2c0a 0972 656d 6f74  alVideo',..remot
	0x01e0:  6556 6964 656f 7345 6c3a 2027 7265 6d6f  eVideosEl:.'remo
	0x01f0:  7465 5669 6465 6f27 2c0a 0961 7574 6f52  teVideo',..autoR
	0x0200:  6571 7565 7374 4d65 6469 613a 2074 7275  equestMedia:.tru
	0x0210:  650a 7d29 3b0a 0a77 6562 7274 632e 6f6e  e.});..webrtc.on
	0x02